:020000040800F2
:1000000000000120E50100089102000899020008A3
:10001000A1020008A9020008B102000800000000C7
:10002000000000000000000000000000B90200080D
:10003000C102000800000000C9020008D102000847
:100040008902000889020008890200088902000864
:1000500089020008890200088D130008E9130008CE
:100060008902000889020008890200088902000844
:100070008902000889020008890200088902000834
:100080008902000889020008890200088902000824
:100090008902000889020008890200088902000814
:1000A0008902000889020008890200088902000804
:1000B00089020008890200088902000889020008F4
:1000C00089020008890200088902000889020008E4
:1000D00089020008F9120008890200088902000854
:1000E00089020008890200088902000889020008C4
:1000F00089020008890200088902000889020008B4
:1001000089020008890200088902000889020008A3
:100110008902000889020008951200088902000877
:100120008902000889020008890200088902000883
:1001300000000000000000000000000000000000BF
:1001400000000000000000000000000000000000AF
:10015000000000000000000000000000000000009F
:10016000000000000000000000000000000000008F
:10017000000000000000000000000000000000007F
:10018000000000000000000000000000000000006F
:10019000000000000000000000000000000000005F
:1001A000000000000000000000000000000000004F
:1001B000000000000000000000000000000000003F
:1001C000000000000000000000000000000000002F
:1001D000000000000000000000000000000000001F
:1001E0005FF8E0F180B584B000AF40F6BC13C2F216
:1001F0000003BB6040F60C53C2F200037B60BB6897
:100200003B6007E03B684FF000021A603B6803F177
:1002100004033B607A683B689A42F3D804F0ACFB75
:1002200002F042FEF86004F0EFFBF86804F014FC02
:1002300080B584B000AF4BF66823C0F60003FB60C6
:1002400040F20003C2F20003BB6040F6BC13C2F2EE
:1002500000037B60BB683B600BE0FB681A683B688F
:100260001A603B6803F104033B60FB6803F104037D
:10027000FB607A683B689A42EFD804F0F3FB07F121
:100280001007BD4680BD00BF80B400AFFEE700BFD1
:1002900080B400AFFEE700BF80B400AFFEE700BF50
:1002A00080B400AFFEE700BF80B400AFFEE700BF40
:1002B00080B400AFFEE700BF80B400AFFEE700BF30
:1002C00080B400AFFEE700BF80B400AFFEE700BF20
:0802D00080B400AFFEE700BF9F
:1002D80031020008110500080D0B000895250008DB
:1002E80080B500AF00F004F800F04EF800BF80BD04
:1002F80080B586B000AF40F20003C2F200031B686D
:1003080018464FF0010101F015FC4FF40063C4F2E8
:1003180001037B604FF010033B814FF00403FB6047
:100328004FF000033B7440F20003C2F200031A6866
:1003380007F104031046194601F020FC4FF00003B2
:10034800FB7514E040F20003C2F200031968FA7D5D
:1003580040F20803C2F200039A5CFB7D084611468E
:100368001A4601F06DFCFB7D03F10103FB75FB7D73
:10037800012B8CBF00230123DBB2002BE2D107F154
:100388001807BD4680BD00BF80B582B000AF40F6FB
:10039800C413C2F200031B687B604FF004033B7078
:1003A8003B4640F6BC10C2F20000194602F008F9BC
:1003B80000F004F807F10807BD4680BD80B582B09B
:1003C80000AF4FF001004FF0010103F09DFF4FF027
:1003D8000303BB804FF00403FB7107F104034FF4E0
:1003E8004060C4F20100194603F076FC4FF00100AA
:1003F8004FF0000103F046FE4FF001004FF00101FD
:1004080003F040FE40F6C813C2F200034FF00102A9
:100418001A6040F6C813C2F200034FF000021A71C6
:1004280040F6C813C2F200034FF008025A7140F6B2
:10043800C813C2F200034FF001029A7140F6C810C7
:10044800C2F2000003F070FB40F6C813C2F20003CA
:100458004FF002021A6040F6C813C2F200034FF0D0
:1004680000021A7140F6C813C2F200034FF00C02E2
:100478005A7140F6C813C2F200034FF001029A7194
:1004880040F6C810C2F2000003F04EFB4FF007031D
:100498003B704FF000037B704FF00003BB704FF0D0
:1004A8000103FB703B46184603F0CAFA4FF00603F7
:1004B8003B703B46184603F0C3FA07F10807BD46F0
:1004C80080BD00BF80B582B000AF786039607B68BE
:1004D800012B14D13A684FF6FF739A420FD140F6B8
:1004E800BC10C2F2000002F05BF840F20003C2F256
:1004F80000031A6840F6C413C2F200031A6007F139
:100508000807BD4680BD00BF80B500AF4FF00100B1
:100518004FF6FF71FFF7D6FF80BD00BF80B582B0F0
:1005280000AF78600B46FB707B68FA781A707868C1
:1005380000F006F87B68184607F10807BD4680BD3D
:1005480080B584B000AF78607B681B781A464BF2A0
:10055800E073C0F6000353F8223018464FF001014B
:1005680003F0D2FE7B681B781A4640F21403C2F2ED
:1005780000039B5CFB737B681B781A4640F21803E8
:10058800C2F200039B5CBB737B681B781A464BF274
:10059800DC73C0F6000333F81230BB817B681B782C
:1005A8001A4640F20C03C2F2000353F8222007F166
:1005B8000C031046194603F08FFB07F11007BD46E0
:1005C80080BD00BF80B483B000AF78607B681B78C3
:1005D8001A4640F6E013C2F200039B5C002B0CD0D5
:1005E8007B681B781A4640F6E013C2F200034FF00E
:1005F800000199544FF001030EE07B681B781A46FE
:1006080040F6E413C2F200039B5C002B02D04FF0CB
:10061800020301E04FF00003184607F10C07BD463E
:1006280080BC704780B582B000AF40F6EC13C2F2D0
:1006380000031B7803F1010146F26763C6F26663A3
:1006480083FB01234FEA63024FEAE173D21A134690
:100658004FEA83039B18CA1AD2B240F6EC13C2F2CF
:1006680000031A7040F6EC13C2F200031B78042B47
:1006780020D14FF00003FB7114E0FA7940F21C031B
:10068800C2F2000353F82230002B07D0FA7940F267
:100698001C03C2F2000353F822309847FB7903F198
:1006A8000103FB71FB79012B8CBF00230123DBB213
:1006B800002BE2D107F10807BD4680BD80B500AF29
:1006C80040F6D413C2F200031A7840F6D813C2F2E7
:1006D80000031A7040F6D013C2F200031A7840F6ED
:1006E800D413C2F200031A7040F20C03C2F20003E2
:1006F8001A684BF2DC73C0F600031B8810461946D3
:1007080003F0D8FB03461A4640F6D013C2F20003A2
:100718001A7040F6E813C2F200031B88002B1AD0A7
:1007280040F6E813C2F200031B8803F1FF339AB2C4
:1007380040F6E813C2F200031A8040F6E813C2F24A
:1007480000031B88002B06D140F6E413C2F2000315
:100758004FF001021A7040F6D013C2F200031A7863
:1007680040F6D413C2F200031B789A426DD140F6CA
:10077800D413C2F200031A7840F6D813C2F2000369
:100788001B789A4261D140F6D013C2F200031A785E
:1007980040F6DC13C2F200031B789A4255D040F6AB
:1007A800D013C2F200031A784BF2D873C0F60003D4
:1007B8001B789A4210D140F6D013C2F200031A787F
:1007C80040F6DC13C2F200031A7040F6E813C2F2D6
:1007D80000034FF0C8021A8040F6D013C2F200039B
:1007E8001B781A464BF2D873C0F600031B78002B0F
:1007F80014BF00230123DBB29A4226D140F6D0135E
:10080800C2F200031A7840F6DC13C2F200031A7031
:1008180040F6E813C2F200031B88002B07D040F60D
:10082800E013C2F200034FF001021A7006E040F62E
:10083800E413C2F200034FF000021A7040F6E81306
:10084800C2F200034FF000021A8080BD80B500AFED
:1008580040F6D413C2F200035A7840F6D813C2F215
:1008680000035A7040F6D013C2F200035A7840F6DB
:10087800D413C2F200035A7040F20C03C2F2000310
:100888005A684BF2DC73C0F600035B8810461946C1
:1008980003F010FB03461A4640F6D013C2F20003D9
:1008A8005A7040F6E813C2F200035B88002B1AD096
:1008B80040F6E813C2F200035B8803F1FF339AB2F3
:1008C80040F6E813C2F200035A8040F6E813C2F279
:1008D80000035B88002B06D140F6E413C2F2000344
:1008E8004FF001025A7040F6D013C2F200035A7852
:1008F80040F6D413C2F200035B789A426DD140F6F9
:10090800D413C2F200035A7840F6D813C2F2000397
:100918005B789A4261D140F6D013C2F200035A784C
:1009280040F6DC13C2F200035B789A4255D040F6D9
:10093800D013C2F200035A784BF2D873C0F6000302
:100948005B789A4210D140F6D013C2F200035A786D
:1009580040F6DC13C2F200035A7040F6E813C2F204
:1009680000034FF0C8025A8040F6D013C2F20003C9
:100978005B781A464BF2D873C0F600035B78002BFD
:1009880014BF00230123DBB29A4226D140F6D013CC
:10099800C2F200035A7840F6DC13C2F200035A7020
:1009A80040F6E813C2F200035B88002B07D040F63C
:1009B800E013C2F200034FF001025A7006E040F65D
:1009C800E413C2F200034FF000025A7040F6E81335
:1009D800C2F200034FF000025A8080BD80B483B099
:1009E80000AF786039607B68012B40F085803A68F9
:1009F8004FF6FF739A427FD14BF2D873C0F60003CB
:100A08001B78002B14BF00230123DBB21A4640F6E3
:100A1800D013C2F200031A704BF2D873C0F6000369
:100A28005B78002B14BF00230123DBB21A4640F683
:100A3800D013C2F200035A704BF2D873C0F6000309
:100A48001B78002B14BF00230123DBB21A4640F6A3
:100A5800D413C2F200031A704BF2D873C0F6000325
:100A68005B78002B14BF00230123DBB21A4640F643
:100A7800D413C2F200035A704BF2D873C0F60003C5
:100A88001B78002B14BF00230123DBB21A4640F663
:100A9800D813C2F200031A704BF2D873C0F60003E1
:100AA8005B78002B14BF00230123DBB21A4640F603
:100AB800D813C2F200035A704BF2D873C0F6000381
:100AC8001B78002B14BF00230123DBB21A4640F623
:100AD800DC13C2F200031A704BF2D873C0F600039D
:100AE8005B78002B14BF00230123DBB21A4640F6C3
:100AF800DC13C2F200035A7007F10C07BD4680BC34
:100B0800704700BF80B500AF4FF001004FF6FF718E
:100B1800FFF764FF80BD00BF80B582B000AF78608A
:100B2800786800F021F9786800F0BAF9786800F080
:100B380053FA786800F0ECFA786800F085FB00BF9B
:100B48007B68184607F10807BD4680BD80B586B0AA
:100B580000AFF8600B467A60FB724FF00103FB753B
:100B68007B68002B02D14FF0010334E0FB7A042BA1
:100B78002FD801A252F823F0950B0008A30B000808
:100B8800B10B0008BF0B0008CD0B0008F8687968A6
:100B980000F070F80346FB751CE0F868796800F00F
:100BA80005F90346FB7515E0F868796800F09AF9CD
:100BB8000346FB750EE0F868796800F02FFA0346E3
:100BC800FB7507E0F868796800F0C4FA0346FB751E
:100BD80000E000BFFB7D184607F11807BD4680BD41
:100BE80080B586B000AFF8600B467A60FB724FF0B4
:100BF8000103FB757B68002B02D14FF0010334E041
:100C0800FB7A042B2FD801A252F823F0290C0008F4
:100C1800370C0008450C0008530C0008610C00084C
:100C2800F868796800F062F80346FB751CE0F8681C
:100C3800796800F0F7F80346FB7515E0F8687968FD
:100C480000F08CF90346FB750EE0F868796800F04F
:100C580021FA0346FB7507E0F868796800F0B6FAF0
:100C68000346FB7500E000BFFB7D184607F1180737
:100C7800BD4680BD80B485B000AF786039604FF064
:100C88000003BB734FF00003FB7318E0FA7B40F6D8
:100C9800F013C2F2000353F82230002B0BD14FF0AF
:100CA8000103BB73FA7B40F6F013C2F20003396804
:100CB80043F822100BE0FB7B03F10103FB73FB7B82
:100CC800032B8CBF00230123DBB2002BDED1BB7BBF
:100CD800002B02D04FF0000301E04FF0010318464B
:100CE80007F11407BD4680BC704700BF80B485B0CB
:100CF80000AF786039604FF00003BB734FF000031A
:100D0800FB731AE0FA7B40F6F013C2F2000353F8C3
:100D180022203B689A420CD14FF00103BB73FA7B47
:100D280040F6F013C2F200034FF0000143F822101E
:100D38000BE0FB7B03F10103FB73FB7B032B8CBFF5
:100D480000230123DBB2002BDCD1BB7B002B02D0BC
:100D58004FF0000301E04FF00103184607F11407B4
:100D6800BD4680BC704700BF80B485B000AF7860D6
:100D78004FF00003FB730CE0FA7B40F6F013C2F26D
:100D880000034FF0000143F82210FB7B03F101033D
:100D9800FB73FB7B032B8CBF00230123DBB2002BEF
:100DA800EAD107F11407BD4680BC704780B485B00E
:100DB80000AF786039604FF00003BB734FF0000359
:100DC800FB7318E0FA7B40F60023C2F2000353F8E5
:100DD8002230002B0BD14FF00103BB73FA7B40F696
:100DE8000023C2F20003396843F822100BE0FB7BB2
:100DF80003F10103FB73FB7B032B8CBF002301234F
:100E0800DBB2002BDED1BB7B002B02D04FF00003FE
:100E180001E04FF00103184607F11407BD4680BCF6
:100E2800704700BF80B485B000AF786039604FF07C
:100E38000003BB734FF00003FB731AE0FA7B40F624
:100E48000023C2F2000353F822203B689A420CD1D7
:100E58004FF00103BB73FA7B40F60023C2F2000394
:100E68004FF0000143F822100BE0FB7B03F1010374
:100E7800FB73FB7B032B8CBF00230123DBB2002B0E
:100E8800DCD1BB7B002B02D04FF0000301E04FF018
:100E98000103184607F11407BD4680BC704700BF20
:100EA80080B485B000AF78604FF00003FB730CE0AE
:100EB800FA7B40F60023C2F200034FF0000143F82A
:100EC8002210FB7B03F10103FB73FB7B032B8CBF1D
:100ED80000230123DBB2002BEAD107F11407BD463A
:100EE80080BC704780B485B000AF786039604FF03F
:100EF8000003BB734FF00003FB7318E0FA7B40F666
:100F08001023C2F2000353F82230002B0BD14FF00C
:100F18000103BB73FA7B40F61023C2F20003396861
:100F280043F822100BE0FB7B03F10103FB73FB7B0F
:100F3800032B8CBF00230123DBB2002BDED1BB7B4C
:100F4800002B02D04FF0000301E04FF001031846D8
:100F580007F11407BD4680BC704700BF80B485B058
:100F680000AF786039604FF00003BB734FF00003A7
:100F7800FB731AE0FA7B40F61023C2F2000353F821
:100F880022203B689A420CD14FF00103BB73FA7BD5
:100F980040F61023C2F200034FF0000143F822107C
:100FA8000BE0FB7B03F10103FB73FB7B032B8CBF83
:100FB80000230123DBB2002BDCD1BB7B002B02D04A
:100FC8004FF0000301E04FF00103184607F1140742
:100FD800BD4680BC704700BF80B485B000AF786064
:100FE8004FF00003FB730CE0FA7B40F61023C2F2CB
:100FF80000034FF0000143F82210FB7B03F10103CB
:10100800FB73FB7B032B8CBF00230123DBB2002B7C
:10101800EAD107F11407BD4680BC704780B485B09B
:1010280000AF786039604FF00003BB734FF00003E6
:10103800FB7318E0FA7B40F62023C2F2000353F852
:101048002230002B0BD14FF00103BB73FA7B40F623
:101058002023C2F20003396843F822100BE0FB7B1F
:1010680003F10103FB73FB7B032B8CBF00230123DC
:10107800DBB2002BDED1BB7B002B02D04FF000038C
:1010880001E04FF00103184607F11407BD4680BC84
:10109800704700BF80B485B000AF786039604FF00A
:1010A8000003BB734FF00003FB731AE0FA7B40F6B2
:1010B8002023C2F2000353F822203B689A420CD145
:1010C8004FF00103BB73FA7B40F62023C2F2000302
:1010D8004FF0000143F822100BE0FB7B03F1010302
:1010E800FB73FB7B032B8CBF00230123DBB2002B9C
:1010F800DCD1BB7B002B02D04FF0000301E04FF0A6
:101108000103184607F11407BD4680BC704700BFAD
:1011180080B485B000AF78604FF00003FB730CE03B
:10112800FA7B40F62023C2F200034FF0000143F897
:101138002210FB7B03F10103FB73FB7B032B8CBFAA
:1011480000230123DBB2002BEAD107F11407BD46C7
:1011580080BC704780B485B000AF786039604FF0CC
:101168000003BB734FF00003FB7318E0FA7B40F6F3
:101178003023C2F2000353F82230002B0BD14FF07A
:101188000103BB73FA7B40F63023C2F200033968CF
:1011980043F822100BE0FB7B03F10103FB73FB7B9D
:1011A800032B8CBF00230123DBB2002BDED1BB7BDA
:1011B800002B02D04FF0000301E04FF00103184666
:1011C80007F11407BD4680BC704700BF80B485B0E6
:1011D80000AF786039604FF00003BB734FF0000335
:1011E800FB731AE0FA7B40F63023C2F2000353F88F
:1011F80022203B689A420CD14FF00103BB73FA7B63
:1012080040F63023C2F200034FF0000143F82210E9
:101218000BE0FB7B03F10103FB73FB7B032B8CBF10
:1012280000230123DBB2002BDCD1BB7B002B02D0D7
:101238004FF0000301E04FF00103184607F11407CF
:10124800BD4680BC704700BF80B485B000AF7860F1
:101258004FF00003FB730CE0FA7B40F63023C2F238
:1012680000034FF0000143F82210FB7B03F1010358
:10127800FB73FB7B032B8CBF00230123DBB2002B0A
:10128800EAD107F11407BD4680BC704780B582B02B
:1012980000AF4FF48050C4F200004FF0010103F09A
:1012A80009FA4FF00003FB7114E0FA7940F60023C5
:1012B800C2F2000353F82230002B07D0FA7940F627
:1012C8000023C2F2000353F822309847FB7903F158
:1012D8000103FB71FB79032B8CBF00230123DBB2D5
:1012E800002BE2D100BF07F10807BD4680BD00BF53
:1012F80080B582B000AF4FF00003FB7114E0FA79BB
:1013080040F61023C2F2000353F82230002B07D016
:10131800FA7940F61023C2F2000353F822309847B6
:10132800FB7903F10103FB71FB79032B8CBF0023CD
:101338000123DBB2002BE2D14FF46050C4F201006C
:1013480040F2255103F0F2FA4FF46050C4F2010064
:1013580040F66A1103F0EAFA4FF46050C4F2010053
:1013680040F6460103F0E2FA4FF46050C4F201007F
:1013780040F2266103F0DAFA00BF07F10807BD461C
:1013880080BD00BF80B582B000AF4FF00003FB7195
:1013980014E0FA7940F62023C2F2000353F8223011
:1013A800002B07D0FA7940F62023C2F2000353F845
:1013B80022309847FB7903F10103FB71FB79032B7A
:1013C8008CBF00230123DBB2002BE2D14FF00100D8
:1013D80002F072FC00BF07F10807BD4680BD00BFE0
:1013E80080B582B000AF4FF00003FB7114E0FA79CA
:1013F80040F63023C2F2000353F82230002B07D006
:10140800FA7940F63023C2F2000353F822309847A5
:10141800FB7903F10103FB71FB79032B8CBF0023DC
:101428000123DBB2002BE2D14FF0020002F044FCB2
:1014380000BF07F10807BD4680BD00BF80B584B076
:1014480000AF78600B46FB707B68FA781A70FA7800
:101458004BF2F073C0F6000353F8223018464FF0F1
:10146800010102F051FFFA7840F23403C2F200039E
:101478009B5CFB73FA784BF2E873C0F6000333F811
:101488001230BB81FA7840F23803C2F200039B5C49
:10149800BB73FA7840F22403C2F2000353F8222007
:1014A80007F10C031046194602F016FC7B68184633
:1014B80007F11007BD4680BD80B582B000AF7860E7
:1014C8007B681B781A4640F22403C2F2000353F8E3
:1014D80022207B681B7819464BF2E873C0F600039C
:1014E80033F811301046194602F020FD07F10807BD
:1014F800BD4680BD80B582B000AF78607B681B7840
:101508001A4640F22403C2F2000353F822207B68F3
:101518001B7819464BF2E873C0F6000333F8113014
:101528001046194602F010FD07F10807BD4680BDB8
:1015380080B582B000AF78607B681B781A4640F2AD
:101548002403C2F2000353F822207B681B78194653
:101558004BF2E873C0F6000333F811301046194611
:1015680002F0C6FC0346002B16D07B681B781A468F
:1015780040F22403C2F2000353F822207B681B7850
:1015880019464BF2E873C0F6000333F811301046E1
:10159800194602F0D9FC15E07B681B781A4640F220
:1015A8002403C2F2000353F822207B681B781946F3
:1015B8004BF2E873C0F6000333F8113010461946B1
:1015C80002F0B4FC07F10807BD4680BD80B584B0C1
:1015D80000AF07F10C0318464FF00101FFF72EFF8B
:1015E80007F1080318464FF00201FFF727FF07F13C
:1015F800040318464FF00301FFF720FF07F10C031F
:101608001846FFF777FF07F108031846FFF772FF40
:1016180007F104031846FFF76DFF07F11007BD46F1
:1016280080BD00BF80B58CB000AF786013460A4615
:101638007A803B807A684FF48053C4F200039A4260
:1016480004D14FF0010387F82F300AE07A684FF48D
:10165800A053C4F200039A426ED14FF0000387F8FA
:101668002F3097F82F30002B02D04FF0100301E0F5
:101678004FF0200318464FF0010102F06FFE786822
:101688004FF0010102F08CFF78684FF001014FF034
:10169800010202F04DFF7B88786819464FF000027E
:1016A80002F06AFF3B887868194602F0F5FF78680F
:1016B8004FF0000102F094FF78684FF0000102F04B
:1016C800AFFF78684FF0000102F0CAFF78684FF06A
:1016D800010102F00DFF4FF036033B734FF0010399
:1016E800FB734FF00F037B734FF00F03BB7307F1CE
:1016F8000C03184602F0A4F907F11003184602F08B
:1017080019FDBB69BB62BA6A44F6D353C1F26203DE
:10171800A3FB02134FEA9313BB627B883A8802FB50
:1017280003F37B627A6ABB6AB2FBF3F39AB240F6C0
:101738004C23C2F200031A8007F13007BD4680BD72
:1017480080B582B000AF0B463A600246FA71BB80A2
:10175800FB7983F00103DBB2002B16D040F23C0387
:10176800C2F200034FF6FF721A8040F64023C2F21D
:1017780000031B681846FFF7BDFE40F64023C2F27F
:1017880000034FF000021A6028E040F64C23C2F232
:1017980000031B88BA88B2FBF3F39BB29AB240F2FB
:1017A8003C03C2F200031A8040F23C03C2F2000379
:1017B8001B889AB240F64C23C2F200031B8803FB35
:1017C80002F39AB240F64423C2F200031A8040F6AC
:1017D8004023C2F200033A681A6000BF07F1080705
:1017E800BD4680BD80B500AF40F23C03C2F20003A5
:1017F8001B881BB2002B37DB40F23C03C2F200030C
:101808001B8803F1FF339AB240F23C03C2F2000393
:101818001A8040F23C03C2F200031B881BB2002B63
:1018280024DC40F64423C2F200031A8840F64C2315
:10183800C2F200031B88B2FBF3F39BB29AB240F2E8
:101848003C03C2F200031A8040F64023C2F20003B0
:101858001B68002B0AD040F64023C2F200031B6825
:101868001846FFF765FE01E000BF00E000BF80BD3D
:1018780080B400AF40F64823C2F200031B68002B77
:101888000BD040F64823C2F200031B6803F1FF3275
:1018980040F64823C2F200031A6000BFBD4680BC70
:1018A800704700BF80B483B000AF78600B467B8080
:1018B8007B8803F1FF339AB27B681A807B684FF00C
:1018C80000029A847B684FF0000283F826207B6828
:1018D80093F826304FF0010202FA03F3DAB27B687C
:1018E80083F827207B684FF0000283F830207B685C
:1018F800184607F10C07BD4680BC704780B584B018
:1019080000AF78607B681B881A464BF60003C0F668
:1019180000039B5CFB737B681B881946FA7B40F2CB
:101928006803C2F200034FEA41018A1853F82230D3
:1019380018464FF0010102F0E7FC7B681B88194646
:10194800FA7B40F28803C2F200034FEA41018A1889
:1019580053F8223018464FF0010102F0D5FC7B689D
:101968001B881946FA7B40F2A803C2F200034FEA2B
:1019780041018A1853F8223018464FF0010102F04D
:10198800C3FC4FF01803FB724FF00303BB727B6874
:101998001B881946FA7B4BF60403C0F600034FEA8E
:1019A80041018A1833F812303B817B681B8819463D
:1019B800FA7B40F25803C2F200034FEA41018A1849
:1019C80053F8222007F108031046194602F084F95B
:1019D8007B681B881946FA7B4BF61403C0F6000394
:1019E8004FEA41018A1833F812303B817B681B8823
:1019F8001946FA7B40F29803C2F200034FEA41010C
:101A08008A1853F8222007F108031046194602F0F5
:101A180063F94FF00403FB727B681B881946FA7B55
:101A28004BF60C03C0F600034FEA41018A1833F85D
:101A380012303B817B681B881946FA7B40F2780399
:101A4800C2F200034FEA41018A1853F8222007F135
:101A580008031046194602F03FF907F11007BD4682
:101A680080BD00BF80B588B000AF786039607B6802
:101A78001B881A4640F25003C2F2000353F8222092
:101A88007B681B88194640F24803C2F2000353F8EA
:101A9800213018464FF0010190473B681B883B8373
:101AA8003B685B88BB823B689B887B823B68DB88A2
:101AB800BB833B681B893B823B685B89BB813B6876
:101AC8009B897B833B68DB89FB813B681B8AFB82A4
:101AD8007B681B881A4640F24003C2F2000353F8A1
:101AE800222007F10C031046194602F061FC7B68BE
:101AF8001B881A4640F24003C2F2000353F8223012
:101B080018464FF0010102F097FC3B68DB89B3F5FA
:101B1800827F08D13B685B89002B03D17868FFF787
:101B2800EDFE00E000BF4FF00003184607F1200764
:101B3800BD4680BD80B483B000AF78600B46FB70B3
:101B4800FB78032B02D94FF0010310E07B68FA7889
:101B580083F826207B6893F826304FF0010202FABA
:101B680003F3DAB27B6883F827204FF000031846A6
:101B780007F10C07BD4680BC704700BF80B584B034
:101B880000AF786039603B681B7B022B02D94FF0AD
:101B9800010350E03B681B7BFB73FB7B3A681268D0
:101BA80079684FEA8303CB185A60FA7B3B689988B7
:101BB8007B6802F1080223F81210FA7B3B689968E7
:101BC8007B6802F1060243F82210FA7B7B6802F177
:101BD800060253F8223018464FF0010102F094FB38
:101BE8004FF01003FB72FA7B7B6802F1080233F8AE
:101BF80012303B814FF00103BB72FB7B7A684FEADE
:101C08008303D3185A6807F108031046194602F0EF
:101C180063F87B689B8C9AB2FB7B03F101034FF05E
:101C2800010101FA03F39BB213439BB29AB27B689A
:101C38009A844FF00003184607F11007BD4680BD8F
:101C480080B582B000AF786013460A46FA70BB7060
:101C58007B6893F82730BA789A4202D34FF0010391
:101C680018E0BB787A68D318FA7883F82820FB78CC
:101C7800002B0DD17B68BA7883F832207B684FF04F
:101C8800000283F8302078684FF0000100F0D4F8A3
:101C98004FF00003184607F10807BD4680BD00BF96
:101CA80080B582B000AF78600B46FB707B6893F814
:101CB8003030002B02D04FF0020313E07B68FA7833
:101CC80083F83020786800F013F80346002B0CBF27
:101CD80000230123DBB2002B02D04FF0030301E005
:101CE8004FF00003184607F10807BD4680BD00BF46
:101CF80080B485B000AF78604FF00003BB734FF03D
:101D08000003FB7311E0FB7B7A68D31893F8282053
:101D18007B6893F830309A4203D14FF00103BB73CC
:101D28000BE0FB7B03F10103FB73FB7B072B8CBFF1
:101D380000230123DBB2002BE5D1BB7B002B06D0AF
:101D48007B68FA7B83F831204FF0000301E04FF005
:101D58000303184607F11407BD4680BC704700BF4F
:101D680080B584B000AF78600B46FB707B689B8CB5
:101D78001A464FF6FE7313407A6892F8262002F14D
:101D880001024FF0010101FA02F2A2F102029342AC
:101D980002D04FF0010349E07B6893F83030FA78BD
:101DA8009A4200D0FEE77B6893F83130FB734FF01E
:101DB8000003BB732DE0FB7B03F00103002B10D164
:101DC800BB7B7A684FEA8303D3185A68B97B7B6870
:101DD80001F1080133F811301046194602F0B4F841
:101DE8000FE0BB7B7A684FEA8303D3185A68B97B44
:101DF8007B6801F1080133F811301046194602F0EA
:101E080095F8FB7B4FEA6303FB73BB7B03F101038C
:101E1800BB737B6893F82630BA7B9A422CBF0023A9
:101E28000123DBB2002BC6D14FF00003184607F19F
:101E38001007BD4680BD00BF80B584B000AF786094
:101E48000B46FB707B689B8C1A464FF6FE7313405B
:101E58007A6892F8262002F101024FF0010101FA96
:101E680002F2A2F10202934202D04FF0010349E0CC
:101E78007B6893F83030FA789A4200D0FEE77B68A6
:101E880093F83230FB734FF00003BB732DE0FB7BFC
:101E980003F00103002B10D1BB7B7A684FEA830360
:101EA800D3185A68B97B7B6801F1080133F81130FF
:101EB8001046194602F048F80FE0BB7B7A684FEAF3
:101EC8008303D3185A68B97B7B6801F1080133F89A
:101ED80011301046194602F029F8FB7B4FEA6303DC
:101EE800FB73BB7B03F10103BB737B6893F826305C
:101EF800BA7B9A422CBF00230123DBB2002BC6D148
:101F08004FF00003184607F11007BD4680BD00BF1B
:101F180080B582B000AF786013460A46FA703B80FD
:101F28007B6893F83030FA789A4200D0FEE700BF19
:101F38007B681B881A4640F24003C2F2000353F83C
:101F4800223018464FF0020102F0B2FA0346002B85
:101F580014BF00230123DBB2002BE9D17B681B8867
:101F68001A4640F24003C2F2000353F822203B888D
:101F78001046194602F080FA00BF7B681B881A4693
:101F880040F24003C2F2000353F8223018464FF0E3
:101F9800010102F08DFA0346002B14BF0023012330
:101FA800DBB2002BE9D17B681B881A4640F240035C
:101FB800C2F2000353F82230184602F06BFA0346C7
:101FC800184607F10807BD4680BD00BF80B584B03C
:101FD80000AF78607B681B881A464BF60003C0F692
:101FE80000039B5CFB737B681B881946FA7B40F2F5
:101FF8007803C2F200034FEA41018A1853F82220FD
:102008007B681B881846F97B4BF60C03C0F6000367
:102018004FEA4000411833F811301046194601F0D4
:1020280049FF0346012B14BF00230123DBB2002B19
:1020380002D04FF0010301E04FF00003184607F10A
:102048001007BD4680BD00BF80B483B000AF786084
:102058000B46FB70FB7803F1FF33DAB27B681A702A
:102068007B68184607F10C07BD4680BC704700BF67
:1020780080B588B000AF786039607B681B78042B26
:1020880000F2A9807B681B781A464BF63403C0F629
:10209800000353F8223018464FF0010102F034F9DA
:1020A8007B681B781A464BF64803C0F6000353F8C2
:1020B800223018464FF0010102F026F97B681B78A0
:1020C800002B0ED17B681B781A464BF65C03C0F6D2
:1020D800000353F8223018464FF0010102F014F9BA
:1020E8000DE07B681B781A464BF65C03C0F60003CC
:1020F80053F8223018464FF0010102F02FF97B689F
:102108001B781A464BF61C03C0F6000333F812304E
:10211800BB834FF00303BB774FF01803FB777B6853
:102128001B781A4640F2B803C2F2000353F8222083
:1021380007F11C031046194601F0CEFD7B681B7899
:102148001A464BF62803C0F6000333F81230BB8357
:102158004FF00303BB774FF00403FB777B681B78D2
:102168001A4640F2CC03C2F2000353F8222007F1CA
:102178001C031046194601F0AFFD4FF00C03FB821B
:102188004FF00003BB823B68FB604FF000037B828B
:102198004FF000033B824FF000033B837B681B78C2
:1021A8001A4640F2E003C2F2000353F8222007F176
:1021B8000C031046194602F08FFA7B681B781A4602
:1021C80040F2E003C2F2000353F8223018464FF001
:1021D800010102F057FB07F12007BD4680BD00BF93
:1021E80080B582B000AF78600B46FB7000BF7B689B
:1021F8001B781A4640F2E003C2F2000353F822307B
:1022080018464FF0800102F071FB0346002B14BF03
:1022180000230123DBB2002BE9D17B681B781A4627
:1022280040F2E003C2F2000353F82220FB78104684
:10223800194602F047FB07F10807BD4680BD00BFFD
:1022480080B483B000AF78600B46FB70FB7803F076
:102258000103002B06D040F65023C2F200037A682F
:102268001A600EE040F65023C2F200031A687B6839
:102278009A4206D140F65023C2F200034FF0000202
:102288001A60FB7803F00203002B06D040F65823AF
:10229800C2F200037A681A600EE040F65823C2F2D0
:1022A80000031A687B689A4206D140F65823C2F2A6
:1022B80000034FF000021A60FB7803F00403002BC0
:1022C80006D040F65423C2F200037A681A600EE082
:1022D80040F65423C2F200031A687B689A4206D17A
:1022E80040F65423C2F200034FF000021A6007F1CF
:1022F8000C07BD4680BC704780B586B000AFF8605B
:10230800B9607A60FB68012B02D0022B2AD053E017
:1023180040F65023C2F200031B68002B02D14FF095
:10232800FF334DE04FF000037B6111E040F650238E
:10233800C2F200031A687B69B968CB181B785BB2D4
:1023480010461946FFF74CFF7B6903F101037B61D7
:102358007A697B689A42ACBF00230123DBB2002B69
:10236800E4D12CE040F65423C2F200031B68002B92
:1023780002D14FF0FF3323E04FF000037B6111E0FF
:1023880040F65423C2F200031A687B69B968CB1877
:102398001B785BB210461946FFF722FF7B6903F1F1
:1023A80001037B617A697B689A42ACBF00230123F1
:1023B800DBB2002BE4D102E04FF0FF3300E07B6892
:1023C800184607F11807BD4680BD00BF80B500AFAD
:1023D800FFF7FCF84FF009004FF0010101F094FFFE
:1023E8004FF48070C0F230004FF0010101F0BAFDE7
:1023F80040F2F403C2F200031B6818464FF00101D3
:1024080048F6A042FFF70EF940F2FC03C2F20003BF
:102418001B684FF001004FF4FA711A46FFF790F964
:1024280040F6DC20C2F200004FF41651FFF720FE00
:1024380040F6DC20C2F200004FF00101FFF700FF78
:1024480040F6E020C2F200004FF41651FFF710FEEC
:1024580040F2F803C2F200031B7840F6E420C2F20F
:102468000000194641F2ED72C0F60002FEF76EFB5D
:1024780040F2F803C2F200031B7840F6E420C2F2EF
:102488000000194641F67902C0F60002FEF75EFB2D
:1024980040F2F803C2F200031B7840F6E420C2F2CF
:1024A8000000194640F22D62C0F60002FEF74EFB0E
:1024B8004FF4A06001F0B0FA80BD00BF80B582B0D3
:1024C80000AF786039607B68012B5AD13A684FF6C3
:1024D800FF739A4255D140F65C20C2F200004FF0DB
:1024E8000101FFF7DFF940F69020C2F200004FF03B
:1024F8000201FFF7D7F940F6C420C2F200004FF0FE
:102508000001FEF79BFF40F6C820C2F200004FF022
:102518000101FEF793FF40F6CC20C2F200004FF015
:102528000301FEF78BFF40F6D020C2F200004FF007
:102538000201FEF783FF40F6D420C2F200004FF0FC
:102548000001FDF7EBFF40F6D820C2F200004FF083
:102558000101FDF7E3FF40F6DC20C2F200004FF076
:102568000101FFF771FD40F6E020C2F200004FF0D4
:102578000201FFF769FD40F6E420C2F20000FEF711
:10258800CBFA07F10807BD4680BD00BF80B500AF94
:102598004FF001004FF6FF71FFF790FF80BD00BFBD
:1025A80080B483B000AF78607B684FF000021A6097
:1025B8007B68184607F10C07BD4680BC704700BF12
:1025C80080B582B000AF786039604FF008004FF0F6
:1025D800010101F099FE40F6FC20C2F2000001F072
:1025E80053FC40F6FC23C2F200034FF001021A80AC
:1025F80040F6FC23C2F200034FF04802DA7040F6BE
:10260800FC23C2F200034FF001029A704FF44060BD
:10261800C4F2010040F6FC21C2F2000101F05CFBAB
:1026280040F6FC23C2F200034FF002021A8040F683
:10263800FC23C2F200034FF02802DA7040F6FC23B4
:10264800C2F200034FF001029A704FF44060C4F2E6
:10265800010040F6FC21C2F2000101F03DFB3B689D
:102668005A687B681A603B681A787B681A717868C0
:1026780000F06EF87B681A687B681B79104619466B
:10268800FFF70EFB786800F013F8786800F01CFA82
:1026980078684FF03E0140F20012C2F200024FF09B
:1026A800080300F005F900BF07F10807BD4680BD23
:1026B80080B582B000AF78607B681A687B681B7948
:1026C80010461946FFF7B8FB7B681A687B681B79C8
:1026D80010461946FFF744FB7B681A687B681B792C
:1026E80010461946FFF7A8FB78684FF0330100F051
:1026F80079FB786800F006F800BF07F10807BD46C7
:1027080080BD00BF80B582B000AF78607B681A6872
:102718007B681B7910461946FFF722FB786800F0A2
:10272800A7FB7B681A687B681B79104619464FF02F
:102738003002FFF7EDFB7B681A687B681B7910464F
:102748001946FFF779FB00BF07F10807BD4680BDB2
:1027580080B582B000AF786040F6E823C2F200038B
:102768004FF008021A8040F6E823C2F200034FF047
:1027780000029A8040F6E823C2F200034FF00002FC
:102788005A8040F6E823C2F200034FF000021A8193
:1027980040F6E823C2F200034FF000029A8140F6A7
:1027A800E823C2F200034FF48272DA8140F6E8238C
:1027B800C2F200034FF000025A8140F6E823C2F249
:1027C80000034FF400721A8240F6E823C2F20003B5
:1027D8004FF00702DA807B681B68184640F6E8214C
:1027E800C2F20001FFF73EF907F10807BD4680BDB8
:1027F80080B582B000AF78600B46FB707B681A68C2
:102808007B681B7910461946FFF7AAFA786800F02A
:102818002FFB7B6819687B681A79FB789BB208469E
:1028280011461A46FFF774FB7B681A687B681B79A8
:1028380010461946FFF700FB00BF07F10807BD4621
:1028480080BD00BF80B582B000AF786013460A46ED
:10285800FA70BB707B681A687B681B79104619464A
:10286800FFF77EFA786800F003FB7B6819687B68DD
:102878001A79FB789BB2084611461A46FFF748FBBF
:102888007B6819687B681A79BB789BB20846114641
:102898001A46FFF73DFB7B681A687B681B79104670
:1028A8001946FFF7C9FA00BF07F10807BD4680BD02
:1028B80080B586B000AFF8607A600A46FA72BB72DB
:1028C800FB681A68FB681B7910461946FFF748FA37
:1028D800F86800F0CDFAFB681968FB681A79FB7A8A
:1028E80043F04003DBB2084611461A46FFF710FBD7
:1028F8004FF00003FB7510E0FB681968FB681A7954
:10290800FB7D7868C3181B78084611461A46FFF7FE
:10291800FFFAFB7D03F10103FB75FA7DBB7A9A424E
:102928002CBF00230123DBB2002BE5D1FB681A681A
:10293800FB681B7910461946FFF77EFA00BF07F1BE
:102948001807BD4680BD00BF80B584B000AF786071
:102958000B46FB707B681A687B681B791046194622
:10296800FFF7FEF9786800F083FA7B6819687B68DE
:102978001A79FB7863F07F03DBB2084611461A46E2
:10298800FFF7C6FA7B681A687B681B7910461946F8
:102998004FF0FF02FFF7BCFA0346FB737B681A6827
:1029A8007B681B7910461946FFF746FAFB7B1846E9
:1029B80007F11007BD4680BD90B587B000AFF8603D
:1029C8007A600A46FA72BB72FB681A68FB681B7960
:1029D80010461946FFF7C4F9F86800F049FAFB6891
:1029E8001968FB681A79FB7A63F03F03DBB2084683
:1029F80011461A46FFF78CFA4FF00003FB7513E0F7
:102A0800FB7D7A68D418FB681A68FB681B79104646
:102A180019464FF0FF02FFF77BFA0346DBB223703B
:102A2800FB7D03F10103FB75FA7DBB7A9A422CBF4B
:102A380000230123DBB2002BE2D1FB681A68FB6894
:102A48001B7910461946FFF7F7F97B681B7818467B
:102A580007F11C07BD4690BD80B584B000AF786013
:102A68000B46FB707B681A687B681B791046194611
:102A7800FFF776F9786800F0FBF97B6819687B68DE
:102A88001A79FB7863F03F03DBB2084611461A4611
:102A9800FFF73EFA7B681A687B681B79104619466F
:102AA8004FF0FF02FFF734FA0346FB737B681A689E
:102AB8007B681B7910461946FFF7BEF9FB7B184661
:102AC80007F11007BD4680BD80B582B000AF7860C1
:102AD8004BF67003C0F600031B7878684FF00B01C3
:102AE8001A46FFF7AFFE4BF67003C0F600035B789B
:102AF80078684FF00C011A46FFF7A4FE4BF67003F6
:102B0800C0F600039B7878684FF00D011A46FFF76E
:102B180099FE4BF67003C0F60003DB7878684FF037
:102B28000E011A46FFF78EFE4BF67003C0F600033F
:102B38001B7978684FF00F011A46FFF783FE4BF6B2
:102B48007003C0F600035B7978684FF010011A46ED
:102B5800FFF778FE4BF67003C0F600039B797868A0
:102B68004FF011011A46FFF76DFE4BF67003C0F6E1
:102B78000003DB7978684FF012011A46FFF762FE0E
:102B88004BF67003C0F600031B7A78684FF0130108
:102B98001A46FFF757FE4BF67003C0F600035B7A40
:102BA80078684FF014011A46FFF74CFE4BF6700395
:102BB800C0F600039B7A78684FF00A011A46FFF7BF
:102BC80041FE4BF67003C0F60003DB7A78684FF0DD
:102BD80015011A46FFF736FE4BF67003C0F60003E0
:102BE8001B7B78684FF021011A46FFF72BFE4BF646
:102BF8007003C0F600035B7B78684FF022011A4629
:102C0800FFF720FE4BF67003C0F600039B7B786845
:102C18004FF018011A46FFF715FE4BF67003C0F681
:102C28000003DB7B78684FF019011A46FFF70AFEAC
:102C38004BF67003C0F600031B7C78684FF01A014E
:102C48001A46FFF7FFFD4BF67003C0F600035B7CE6
:102C580078684FF01B011A46FFF7F4FD4BF6700336
:102C6800C0F600039B7C78684FF01C011A46FFF7FA
:102C7800E9FD4BF67003C0F60003DB7C78684FF083
:102C88001D011A46FFF7DEFD4BF67003C0F6000380
:102C98001B7D78684FF023011A46FFF7D3FD4BF6EA
:102CA8007003C0F600035B7D78684FF024011A4674
:102CB800FFF7C8FD4BF67003C0F600039B7D7868EC
:102CC8004FF025011A46FFF7BDFD4BF67003C0F61D
:102CD8000003DB7D78684FF026011A46FFF7B2FD46
:102CE8004BF67003C0F600031B7E78684FF029018D
:102CF8001A46FFF7A7FD4BF67003C0F600035B7E8C
:102D080078684FF02C011A46FFF79CFD4BF67003CC
:102D1800C0F600039B7E78684FF02D011A46FFF736
:102D280091FD4BF67003C0F60003DB7E78684FF028
:102D38002E011A46FFF786FD4BF67003C0F6000316
:102D48001B7F78684FF003011A46FFF77BFD4BF6AF
:102D58007003C0F600035B7F78684FF000011A46E5
:102D6800FFF770FD4BF67003C0F600039B7F786891
:102D78004FF002011A46FFF765FD4BF67003C0F6E7
:102D88000003DB7F78684FF007011A46FFF75AFD0A
:102D98004BF67003C0F6000393F8203078684FF0C4
:102DA80008011A46FFF74EFD4BF67003C0F6000304
:102DB80093F8213078684FF009011A46FFF742FD71
:102DC8004BF67003C0F6000393F8223078684FF092
:102DD80006011A46FFF736FD00BF07F10807BD4692
:102DE80080BD00BF80B483B000AF78600B467B80A5
:102DF8007B88002B0CBF00230123DBB27A8802F109
:102E0800FF327A80002BF3D100BF07F10C07BD46D3
:102E180080BC704780B485B000AF78600B467B807B
:102E28004FF00003FB6015E04FF00003BB6003E0C8
:102E3800BB6803F10103BB60BA6840F2FA439A42E7
:102E4800CCBF00230123DBB2002BF1D1FB6803F1D7
:102E58000103FB607A88FB689A42D4BF00230123F0
:102E6800DBB2002BE0D107F11407BD4680BC7047E8
:102E780080B582B000AF786000BF7B681B681846D9
:102E8800FFF7A4F80346012B14BF00230123DBB28C
:102E9800002BF2D100BF07F10807BD4680BD00BF77
:102EA80080B500AF40F60033C2F200034FF00802CD
:102EB8001A8040F60033C2F200034FF000029A80F5
:102EC80040F60033C2F200034FF000025A8040F689
:102ED8000033C2F200034FF000021A8140F60033BB
:102EE800C2F200034FF000029A8140F60033C2F2AA
:102EF80000034FF48272DA8140F60033C2F2000315
:102F08004FF000025A8140F60033C2F200034FF43A
:102F180000721A8240F60033C2F200034FF0070233
:102F2800DA8040F61833C2F200034FF0C8021A7074
:102F380040F61433C2F200034FF001021A701CE08D
:102F480040F61433C2F200031B781A4640F61433D5
:102F5800C2F20003197840F61833C2F200039954FC
:102F680040F61433C2F200031B7803F10103DAB20E
:102F780040F61433C2F200031A7040F61433C2F25A
:102F880000031B78C82B8CBF00230123DBB2002B66
:102F9800D6D1FFF71BFA40F65C20C2F2000040F6DB
:102FA8000031C2F20001FEF75DFDFDF799F940F22C
:102FB8000813C2F200031B78012B02D0022B0DD09C
:102FC80026E140F61830C2F2000000F023F940F67E
:102FD800CC20C2F20000FEF76FFA1AE140F6E430A6
:102FE800C2F2000000F008FA40F6E433C2F200032F
:102FF80093F8CA30DBB25BB2002B0CDA40F6CC2077
:10300800C2F20000FEF758FA4BF69400C0F6000032
:1030180001F0A4FE05E040F6CC20C2F20000FEF765
:1030280069FA40F61433C2F200034FF000021A7036
:10303800A3E040F61433C2F200031B78002B12D130
:1030480040F61433C2F200031B781A4640F6E43304
:10305800C2F200039B5C4BF6A000C0F600001946C4
:1030680001F032FE7CE040F61433C2F200031B7814
:10307800C82B12D140F61433C2F200031B781A464B
:1030880040F6E433C2F200039B5C4BF6B400C0F692
:103098000000194601F018FE62E040F61433C2F24F
:1030A80000031B78C92B2FD140F6E433C2F200038A
:1030B80093F8C930DAB240F61533C2F200031A7039
:1030C80040F61533C2F200031B785BB24FEAD372A5
:1030D800D3184FEA6303DBB2DBB2A3F14F03DBB2D1
:1030E800DAB240F61533C2F200031A7040F615330F
:1030F800C2F200031B785BB24BF6BC00C0F60000BE
:10310800194601F0E1FD2BE040F61433C2F200034A
:103118001B78CA2B12D140F61433C2F200031B7875
:103128001A4640F6E433C2F200039B5C4BF6CC002F
:10313800C0F60000194601F0C7FD11E040F614334F
:10314800C2F200031B781A4640F6E433C2F20003C9
:103158009B5C4BF6D800C0F60000194601F0B4FDA0
:1031680040F61433C2F200031B7803F10103DAB20C
:1031780040F61433C2F200031A7040F61433C2F258
:1031880000031B78CA2B8CBF00230123DBB2002B62
:103198007FF44FAF40F61433C2F200034FF0000241
:1031A8001A7019E040F61433C2F200031B781A466D
:1031B80040F6E433C2F200034FF00001995440F6A0
:1031C8001433C2F200031B7803F10103DAB240F6AC
:1031D8001433C2F200031A7040F61433C2F200032B
:1031E8001B78CA2B8CBF00230123DBB2002BD9D15B
:1031F80000BF40F6D420C2F20000FDF7E3F9034611
:10320800002B14BF00230123DBB2002BF1D100E017
:1032180000BFCCE680B584B000AF786040F6CC4300
:10322800C2F200034FF001021A7040F6B443C2F232
:1032380000034FF000025A6040F6B443C2F20003A4
:103248004FF000021A7040F6B443C2F200034FF088
:1032580000021A7240F6B443C2F200034FF00002B3
:103268005A727B681B78FB7340F6BC10C2F20000F0
:103278004FF000014FF00202FFF7E4FA40F6BC10ED
:10328800C2F200004FF0C801FFF7C4FD40F6BC10C1
:10329800C2F200004FF03601FFF7AAFA40F6BC1060
:1032A800C2F200004FF03B01FFF7A2FA4FF00C000A
:1032B8004FF0020100F04AFB4FF008004FF0010107
:1032C80000F044FB40F6B043C2F200034FF00002A6
:1032D8001A7040F6B443C2F200037A685A60FB7B66
:1032E8003F2B27D840F20403C2F200031A6840F2C9
:1032F8000913C2F200031B781046194643F26D62A7
:10330800C0F60002FDF722FCFB7B03F10103DBB2F0
:1033180040F6BC10C2F200004FF03F017A68FFF798
:10332800C7FA40F6BC10C2F200004FF03501FFF7B3
:103338005FFA5DE040F20403C2F200031A6840F24B
:103348000913C2F200031B781046194643F20552CE
:10335800C0F60002FDF7FAFB40F6BC10C2F200000E
:103368004FF03F017A684FF04003FFF7A1FAFB7B6B
:10337800A3F13F03DAB240F6B443C2F200031A7075
:103388007B6803F1400240F6B443C2F200035A607E
:1033980040F6B443C2F200031A7848F68903C8F627
:1033A8008803A3FB02134FEA5313DAB240F6B4437F
:1033B800C2F200031A7240F6B443C2F200031B7A49
:1033C800002B06D140F6B443C2F200034FF00102CD
:1033D8005A7240F6BC10C2F200004FF03501FFF7F8
:1033E80007FA40F6CC43C2F200031B78002BF8D151
:1033F80007F11007BD4680BD80B582B000AF786088
:1034080040F6C043C2F200034FF000025A6040F693
:10341800C043C2F200034FF000021A7040F6C043E6
:10342800C2F200034FF000021A7240F6CC43C2F217
:1034380000034FF001021A7040F6BC10C2F20000FF
:103448004FF000014FF00002FFF7FCF940F6BC1006
:10345800C2F200004FF06401FFF7DCFC40F6BC103C
:10346800C2F200004FF03601FFF7C2F940F6BC1077
:10347800C2F200004FF03A01FFF7BAF94FF0080026
:103488004FF0020100F062FA4FF008004FF001011E
:1034980000F05CFA40F6B043C2F200034FF00102BC
:1034A8001A7040F6C043C2F200037A685A6040F2CC
:1034B8000403C2F200031A6840F20913C2F20003BF
:1034C8001B781046194643F20552C0F60002FDF774
:1034D8003DFB40F6BC10C2F200004FF03401FFF78C
:1034E80087F940F6CC43C2F200031B78002BF8D1D1
:1034F80000BF07F10807BD4680BD00BF80B500AF1B
:103508004FF0010000F0ACFB0346002B0CBF00237A
:103518000123DBB2002B00F0A3804FF00C004FF02A
:10352800010100F013FA40F20403C2F200031A6822
:1035380040F20913C2F200031B781046194643F201
:103548000552C0F60002FDF74BFB40F6B043C2F24D
:1035580000031B78012B71D140F20403C2F200036F
:103568001A6840F20913C2F200031B781046194684
:1035780043F26D62C0F60002FDF7E8FA00BF40F6BC
:10358800BC10C2F200004FF03B01FFF765FA03469A
:1035980003F07F03012BCCBF00230123DBB2002BF8
:1035A800EDD140F6BC10C2F200004FF03F01FFF72A
:1035B800CBF903461A4640F6C043C2F200031A721A
:1035C80040F6C043C2F200031B7A03F10203DAB2E9
:1035D80040F6C043C2F200031A7040F6C043C2F27C
:1035E80000031B783C2B11D940F20403C2F20003FC
:1035F8001A6840F20A13C2F200031B7810461946F3
:1036080043F26972C0F60002FDF7A0FA40F6C04323
:10361800C2F200035A6840F6C043C2F200031B7AA4
:10362800137040F6C043C2F200035B6803F1010265
:1036380040F6C043C2F200035A6011E040F20403AE
:10364800C2F200031A6840F20A13C2F200031B78A0
:103658001046194643F61D02C0F60002FDF776FA39
:1036680000BF80BD80B500AF4FF0010000F0F8FA50
:103678000346002B0CBF00230123DBB2002B60D0D4
:1036880040F6B043C2F200031B78012B11D140F67B
:10369800C043C2F200035A6840F6C043C2F20003B6
:1036A8001B7840F6BC10C2F200004FF03F01FFF754
:1036B80083F940F20403C2F200031A6840F20913C6
:1036C800C2F200031B781046194643F26D62C0F639
:1036D8000002FDF785FA40F20403C2F200031A68FB
:1036E80040F20913C2F200031B781046194643F250
:1036F8000552C0F60002FDF773FA40F20403C2F265
:1037080000031A6840F20A13C2F200031B7810463D
:10371800194643F61D02C0F60002FDF761FA40F2B1
:103728000403C2F200031A6840F20A13C2F200034B
:103738001B781046194643F26972C0F60002FDF77D
:103748004FFA40F6D020C2F20000FDF7B5FE40F671
:10375800CC43C2F200034FF000021A7000BF80BDD4
:1037680080B500AF4FF0020000F07AFA0346002B54
:103778000CBF00230123DBB2002B48D040F6B04336
:10378800C2F200031B78012B41D140F6C043C2F2BC
:1037980000035B6840F6BC10C2F200004FF03F0126
:1037A8001A464FF03B03FFF707F940F6C043C2F251
:1037B80000031B78A3F13B03DAB240F6C043C2F220
:1037C80000031A7040F6C043C2F200035B6803F1BD
:1037D8003B0240F6C043C2F200035A6040F6C043C1
:1037E800C2F200031B783B2B11D840F20403C2F24B
:1037F80000031A6840F20A13C2F200031B7810464D
:10380800194643F26972C0F60002FDF7E9F900BFF4
:1038180080BD00BF80B500AF4FF0020000F020FA75
:103828000346002B0CBF00230123DBB2002B00F062
:103838008A8040F6B043C2F200031B78002B40F0A8
:10384800828040F6B443C2F200035B7A002B36D084
:1038580040F20403C2F200031A6840F20A13C2F2EB
:1038680000031B781046194643F61D02C0F60002F5
:10387800FDF7B6F940F20403C2F200031A6840F2F9
:103888000913C2F200031B781046194643F26D6211
:10389800C0F60002FDF75AF940F6B443C2F200033D
:1038A8005A6840F6B443C2F200031B7840F6BC10D5
:1038B800C2F200004FF03F01FEF7FAFF43E040F686
:1038C800B443C2F200035B6840F6BC10C2F20000C9
:1038D8004FF03F011A464FF03C03FEF7E9FF40F670
:1038E800B443C2F200035B6803F13C0240F6B44300
:1038F800C2F200035A6040F6B443C2F200031B78D8
:10390800A3F13C03DAB240F6B443C2F200031A70E2
:1039180040F6B443C2F200031B7A03F1FF33DAB274
:1039280040F6B443C2F200031A7240F6B443C2F23E
:1039380000031B7A002B06D140F6B443C2F2000301
:103948004FF001025A7200BF80BD00BF80B582B03F
:1039580000AF03463960FB7140F6C813C2F200039A
:103968003A681A6040F6C813C2F20003FA795A712D
:1039780040F6C810C2F2000000F0D6F800BF07F108
:103988000807BD4680BD00BF80B584B000AF786031
:1039980040F6D043C2F200031B68002B08D140F662
:1039A800D043C2F2000340F60C52C2F200021A6081
:1039B80040F6D043C2F200031B68FB607B6803F14A
:1039C800030323F003037B6040F6D043C2F20003F5
:1039D8001A687B68D2184FF60043C2F200039A4275
:1039E80008D901F06BF903464FF00C021A604FF04A
:1039F800FF330CE040F6D043C2F200031A687B683C
:103A0800D21840F6D043C2F200031A60FB68184689
:103A180007F11007BD4680BD80B483B000AF786061
:103A28004FF46D43CEF200037A6842F0BF6242F46D
:103A38000032DA6007F10C07BD4680BC704700BF52
:103A480080B487B000AF78604FF000037B614FF01F
:103A580000033B614FF00F03FB607B68DB78002BB2
:103A680047D04FF46D43CEF20003DB686FEA0303DF
:103A780003F4E0634FEA13237B617B69C3F104031A
:103A88003B617B69FA6822FA03F3FB607B685B7829
:103A98001A463B6902FA03F37B617B689B781A46F6
:103AA800FB6813407A6913437B617B694FEA031310
:103AB8007B614FF46143CEF200037A6812781146B5
:103AC8007A69D2B25B1883F800234FF46143CEF2CF
:103AD80000037A6812784FEA5212D2B279680978EC
:103AE80001F01F014FF0010000FA01F143F8221024
:103AF80014E04FF46143CEF200037A6812784FEA7B
:103B08005212D2B27968097801F01F014FF0010012
:103B180000FA01F102F1200243F8221007F11C0714
:103B2800BD4680BC704700BF80B485B000AF7860E8
:103B38004FF00003FB604FF48063C4F20103FB60A5
:103B48007B689B79002B78D04FF48063C4F2010323
:103B58004FF48062C4F2010211687A6812686FEA51
:103B680002020A401A604FF48063C4F201034FF462
:103B78008062C4F2010251687A6812686FEA020230
:103B88000A405A607B681B79FA68D318FB60FB68A7
:103B9800FA6811687A6812680A431A604FF48063F9
:103BA800C4F201034FF48062C4F2010291687A689A
:103BB80012686FEA02020A409A604FF48063C4F206
:103BC80001034FF48062C4F20102D1687A68126876
:103BD8006FEA02020A40DA607B685B79102B1AD11F
:103BE8004FF48063C4F201034FF48062C4F201020F
:103BF80091687A6812680A439A604FF48063C4F245
:103C080001034FF48062C4F20102D1687A68126835
:103C18000A43DA601FE04FF48063C4F20103FB60DB
:103C28007B685B79FA68D318FB60FB68FA681168EF
:103C38007A6812680A431A600DE07B681B79FA6893
:103C4800D318FB60FB68FA6811687A6812686FEA33
:103C580002020A401A6007F11407BD4680BC70478B
:103C680080B485B000AF78604FF00003FB734FF06D
:103C78000003BB604FF48063C4F201031A687B68D9
:103C88001340BB604FF48063C4F201035A697B6838
:103C98001340002B06D0BB68002B03D04FF0010364
:103CA800FB7302E04FF00003FB73FB7B184607F140
:103CB8001407BD4680BC704780B483B000AF7860FD
:103CC8004FF48063C4F201037A685A6107F10C0764
:103CD800BD4680BC704700BF80B489B000AF786033
:103CE80039604FF00003FB614FF000033B614FF078
:103CF8000003BB614FF00003FB604FF000037B61E2
:103D08004FF00003BB603B68DB7803F00F03FB61F7
:103D18003B68DB7803F01003002B04D03B689B78EA
:103D2800FA691343FB613B681B88DBB2002B4ED05A
:103D38007B681B687B614FF00003BB6141E0BB6996
:103D48004FF0010202FA03F3FB603B681B881A4636
:103D5800FB6813403B613A69FB689A422DD1BB6905
:103D68004FEA8303FB60FB684FF00F0202FA03F38C
:103D7800BB60BB686FEA03037A6913407B61FB6829
:103D8800FA6902FA03F37A6913437B613B68DB78CB
:103D9800282B07D1BB694FF0010202FA03F27B68B6
:103DA8005A610AE03B68DB78482B06D1BB694FF0C3
:103DB800010202FA03F27B681A61BB6903F101038D
:103DC800BB61BB69072BBAD97B687A691A603B6803
:103DD8001B88FF2B53D97B685B687B614FF000031E
:103DE800BB6146E0BB6903F108034FF0010202FA28
:103DF80003F3FB603B681B881A46FB6813403B6172
:103E08003A69FB689A4230D1BB694FEA8303FB6089
:103E1800FB684FF00F0202FA03F3BB60BB686FEA5E
:103E280003037A6913407B61FB68FA6902FA03F3BA
:103E38007A6913437B613B68DB78282B08D1BB691F
:103E480003F108034FF0010202FA03F27B685A619A
:103E58003B68DB78482B08D1BB6903F108034FF0B6
:103E6800010202FA03F27B681A61BB6903F10103DC
:103E7800BB61BB69072BB5D97B687A695A6007F1C2
:103E88002407BD4680BC704780B483B000AF78601B
:103E98007B684FF6FF721A807B684FF002029A70B7
:103EA8007B684FF00402DA7007F10C07BD4680BC4E
:103EB800704700BF80B485B000AF78600B467B8048
:103EC8004FF00003FB737B689A687B881340002BD4
:103ED80003D04FF00103FB7302E04FF00003FB73C4
:103EE800FB7B184607F11407BD4680BC704700BF2E
:103EF80080B485B000AF78600B467B804FF000033C
:103F0800FB737B68DA687B881340002B03D04FF083
:103F18000103FB7302E04FF00003FB73FB7B1846C1
:103F280007F11407BD4680BC704700BF80B483B05A
:103F380000AF78600B467B807A887B681A6107F14E
:103F48000C07BD4680BC704780B483B000AF786072
:103F58000B467B807A887B685A6107F10C07BD465F
:103F680080BC704780B487B000AF78600B46FB70A8
:103F78004FF000033B614FF00003FB604FF000037C
:103F88007B614FF00003BB607B68002B06DA4FF0C3
:103F98000003C4F20103DB697B6105E04FF0000315
:103FA800C4F201035B687B617B6803F470234FEA0A
:103FB8001343BB607B684FEA03434FEA13433B61FB
:103FC8007B6803F44013B3F5401F10D17B6923F0DD
:103FD80070637B614FF00003C4F201034FF00002ED
:103FE800C4F20102526822F070625A6026E07B68CF
:103FF80003F48013002B10D0BB684FF0030202FAC1
:1040080003F3FB60FB686FEA03037A6913407B6183
:104018007B6943F070637B6110E07B684FEA535320
:104028004FEA03133A6902FA03F36FEA03037A6962
:1040380013407B617B6943F070637B61FB78002BE5
:104048000AD07B684FEA53534FEA03133A6902FADE
:1040580003F37A6913437B617B68002B06DA4FF020
:104068000003C4F201037A69DA6105E04FF0000346
:10407800C4F201037A695A6007F11C07BD4680BC87
:10408800704700BF90B484B000AF02460B46FA7187
:10409800BB714FF00003FB60BB7903F003034FEAE9
:1040A80083034FF00F0202FA03F3FB604FF00003A3
:1040B800C4F20103BA794FEA9202D2B210464FF025
:1040C8000002C4F20102B9794FEA9101C9B201F1C3
:1040D800020152F82110FA686FEA0202114000F159
:1040E800020243F822104FF00003C4F20103BA7928
:1040F8004FEA9202D2B210464FF00002C4F2010217
:10410800B9794FEA9101C9B201F1020152F82110BF
:10411800FC79BA7902F003024FEA820204FA02F249
:10412800114300F1020243F8221007F11007BD46BF
:1041380090BC704780B487B000AF78604FF0000340
:104148007B614FF000033B614FF00003FB604FF0D1
:104158000003BB604FF48053C4F202035B6803F0B2
:104168000C037B617B69042B0AD0082B0FD0002B32
:104178004DD17A684FF49053C0F27A0313604DE042
:104188007A684FF49053C0F27A03136046E04FF414
:104198008053C4F202035B6803F470133B614FF46D
:1041A8008053C4F202035B6803F48033FB603B690D
:1041B8004FEA934303F102033B61FB68002B09D1EB
:1041C8003A694FF41063C0F23D0303FB02F27B68C7
:1041D8001A6023E04FF48053C4F202035B6803F4CF
:1041E8000033002B09D03A694FF41063C0F23D0345
:1041F80003FB02F27B681A6010E03A694FF49053AF
:10420800C0F27A0303FB02F27B681A6006E07A6860
:104218004FF49053C0F27A03136000BF4FF48053F9
:10422800C4F202035B6803F0F0037B617B694FEA29
:1042380013137B6140F20C13C2F200037A699B18D6
:104248001B78DBB2BB607B681A68BB6822FA03F292
:104258007B685A604FF48053C4F202035B6803F42E
:10426800E0637B617B694FEA13237B6140F20C13A7
:10427800C2F200037A699B181B78DBB2BB607B68CB
:104288005A68BB6822FA03F27B689A604FF480533D
:10429800C4F202035B6803F460537B617B694FEAF5
:1042A800D3237B6140F20C13C2F200037A699B1896
:1042B8001B78DBB2BB607B685A68BB6822FA03F2E2
:1042C8007B68DA604FF48053C4F202035B6803F43E
:1042D80040437B617B694FEA93337B6140F21C1357
:1042E800C2F200037A699B181B78DBB2BB607B685B
:1042F800DA68BB68B2FBF3F27B681A6107F11C0746
:10430800BD4680BC704700BF80B483B000AF786002
:104318000B46FB70FB78002B0CD04FF48053C4F293
:1043280002034FF48052C4F2020291697A680A4388
:104338009A610DE04FF48053C4F202034FF48052A7
:10434800C4F2020291697A686FEA02020A409A612D
:1043580007F10C07BD4680BC704700BF80B483B02E
:1043680000AF78600B46FB70FB78002B0CD04FF445
:104378008053C4F202034FF48052C4F20202D1699E
:104388007A680A43DA610DE04FF48053C4F20203FD
:104398004FF48052C4F20202D1697A686FEA0202CD
:1043A8000A40DA6107F10C07BD4680BC704700BFC0
:1043B80080B485B000AF786039604FF00003FB81AE
:1043C8007B681B88FB81FB8903F44153FB813B68B5
:1043D8001A883B685B8813439AB23B689B881343EF
:1043E8009AB23B68DB8813439AB23B681B89134334
:1043F8009AB23B685B8913439AB23B689B89134323
:104408009AB23B68DB8913439AB2FB891343FB8159
:104418007B68FA891A807B689B8B9BB223F40063C4
:104428009AB27B689A833B681A8A7B681A8207F17A
:104438001407BD4680BC704780B483B000AF786075
:104448000B46FB70FB78002B08D07B681B889BB25F
:1044580043F040039AB27B681A8007E07B681B88A8
:104468009BB223F040039AB27B681A8007F10C07CD
:10447800BD4680BC704700BF80B483B000AF786091
:104488000B467B807B687A889A8107F10C07BD46CA
:1044980080BC704780B483B000AF78607B689B892C
:1044A8009BB2184607F10C07BD4680BC704700BF99
:1044B80080B485B000AF78600B467B804FF0000376
:1044C800FB737B681B899AB27B8813409BB2002BD5
:1044D80003D04FF00103FB7302E04FF00003FB73BE
:1044E800FB7B184607F11407BD4680BC704700BF28
:1044F80080B483B000AF78600B46FB70FB78002B6C
:1045080008D07B681B889BB243F001039AB27B6892
:104518001A8007E07B681B889BB223F001039AB2DC
:104528007B681A8007F10C07BD4680BC704700BF46
:1045380080B483B000AF786013460A467A807B70F7
:104548007B78002B08D07B689B899AB27B881343C1
:104558009AB27B689A810AE07B689B899AB27B88C9
:104568006FEA03039BB213409AB27B689A8107F102
:104578000C07BD4680BC704780B483B000AF78603C
:1045880013460A467A803B807B687A881A857B685E
:104598003A889A8207F10C07BD4680BC704700BF75
:1045A80080B483B000AF78600B46FB70FB78002BBB
:1045B80008D07B681B889BB243F080039AB27B6863
:1045C8001A8007E07B681B889BB223F080039AB2AD
:1045D8007B681A8007F10C07BD4680BC704700BF96
:1045E80080B483B000AF78600B46FB70FB78002B7B
:1045F80008D07B681B889BB243F002039AB27B68A1
:104608001A8007E07B681B889BB223F002039AB2EA
:104618007B681A8007F10C07BD4680BC704700BF55
:1046280080B483B000AF78600B467B807B88002B1A
:1046380008D07B681B889BB243F004039AB27B685E
:104648001A8007E07B681B889BB223F004039AB2A8
:104658007B681A8007F10C07BD4680BC704700BF15
:1046680080B483B000AF78600B467B807B681B8882
:104678009BB223F008039AB27B681A807B681B8878
:104688009AB27B8813439AB27B681A8007F10C07A9
:10469800BD4680BC704700BF80B483B000AF78606F
:1046A8000B467B807B687A889A8507F10C07BD46A4
:1046B80080BC704780B483B000AF78600B467B80C5
:1046C8007B886FEA03039AB27B681A8207F10C07AA
:1046D800BD4680BC704700BF80B58CB000AF786025
:1046E80039604FF00003FB624FF00003BB624FF0EC
:1046F80000037B624FF000033B624FF00003FB6155
:104708007B68FB617B681B8A9BB2FB62FA6A4CF68A
:10471800FF731340FB623B68DB88FA6A1343FB6252
:10472800FB6A9AB27B681A827B689B899BB2FB62A0
:10473800FA6A4EF6F3131340FB623B689A883B68AB
:104748001B8913439AB23B685B8913439BB2FA6A8D
:104758001343FB62FB6A9AB27B689A817B689B8AE7
:104768009BB2FB62FA6A4FF6FF431340FB623B6859
:104778009B89FA6A1343FB62FB6A9AB27B689A8246
:1047880007F108031846FFF7D5FCFA694FF46053A0
:10479800C4F201039A4202D17B69BB6201E03B6922
:1047A800BB627B689B899BB29BB21BB2002B0FDA62
:1047B800BA6A13464FEA83039B184FEA83029A1892
:1047C8003B681B684FEA4303B2FBF3F37B620EE0DE
:1047D800BA6A13464FEA83039B184FEA83029A1872
:1047E8003B681B684FEA8303B2FBF3F37B627A6A88
:1047F80048F21F53C5F2EB13A3FB02134FEA5313FE
:104808004FEA0313FB62FB6A4FEA13134FF064028B
:1048180002FB03F37A6AD31A3B627B689B899BB2DB
:104828009BB21BB2002B12DA3B6A4FEAC30303F1B7
:10483800320248F21F53C5F2EB13A3FB02134FEAEF
:10484800531303F00703FA6A1343FB6211E03B6A50
:104858004FEA031303F1320248F21F53C5F2EB1378
:10486800A3FB02134FEA531303F00F03FA6A13432F
:10487800FB62FB6A9AB27B681A8107F13007BD4672
:1048880080BD00BF80B483B000AF78600B46FB707A
:10489800FB78002B08D07B689B899BB243F40053BC
:1048A8009AB27B689A8107E07B689B899BB223F464
:1048B80000539AB27B689A8107F10C07BD4680BC09
:1048C800704700BF80B483B000AF78600B467B8030
:1048D8007B884FEAC3534FEAD3539AB27B689A80D6
:1048E80007F10C07BD4680BC704700BF80B485B097
:1048F80000AF78600B467B804FF00003FB737B684A
:104908001B889AB27B8813409BB2002B03D04FF0D0
:104918000103FB7302E04FF00003FB73FB7B1846B7
:1049280007F11407BD4680BC704700BF80B485B04E
:1049380000AF78600B467B804FF00003FB814FF09F
:104948000003BB817B884FEA1323FB81FB894FF06F
:10495800010202FA03F3BB81BB896FEA03039AB22F
:104968007B681A8007F11407BD4680BC704700BFFA
:1049780080B582B000AF40F2DC22C0F6000240F2FF
:10498800D823C0F60003D31A4FEAA3033B604FF0C5
:1049980000037B600BE040F2D823C0F600037A687E
:1049A80053F8223098477B6803F101037B607A68EB
:1049B8003B689A42EFD340F2E822C0F6000240F288
:1049C800DC23C0F60003D31A4FEAA3033B604FF081
:1049D80000037B600BE040F2DC23C0F600037A683A
:1049E80053F8223098477B6803F101037B607A68AB
:1049F8003B689A42EFD307F10807BD4680BD00BF68
:104A080080B582B000AF40F2E822C0F6000240F262
:104A1800E823C0F60003D31A4FEAA3033B603B68C0
:104A28007B600DE07B6803F1FF3240F2E823C0F6BB
:104A3800000353F8223098477B6803F1FF337B600B
:104A48007B68002BEED107F10807BD4680BD00BF8B
:104A580080B483B000AF7860FEE700BF80B500AFD8
:104A68004FF48053C4F202034FF48052C4F202029E
:104A7800126842F001021A604FF48052C4F2020236
:104A88004FF48053C4F2020359684FF00003CFF685
:104A9800FF030B4053604FF48053C4F202034FF4FA
:104AA8008052C4F20202126822F0847222F4803228
:104AB8001A604FF48053C4F202034FF48052C4F2D8
:104AC8000202126822F480221A604FF48053C4F262
:104AD80002034FF48052C4F20202526822F4FE022A
:104AE8005A604FF48053C4F202034FF41F029A60D5
:104AF80000F008F84FF46D43CEF200034FF0006267
:104B08009A6080BD80B500AF00F002F880BD00BF9C
:104B180080B483B000AF4FF000037B604FF0000318
:104B28003B604FF48053C4F202034FF48052C4F246
:104B38000202126842F480321A604FF48053C4F2C1
:104B480002031B6803F400333B607B6803F1010335
:104B58007B603B68002B03D17B68B3F5A06FECD179
:104B68004FF48053C4F202031B6803F40033002B94
:104B780003D04FF001033B6002E04FF000033B60BD
:104B88003B68012B40F094804FF40053C4F20203B9
:104B98004FF40052C4F20202126842F010021A6086
:104BA8004FF40053C4F202034FF40052C4F202025D
:104BB800126822F003021A604FF40053C4F2020391
:104BC8004FF40052C4F20202126842F002021A6064
:104BD8004FF48053C4F202034FF48052C4F202022D
:104BE80052685A604FF48053C4F202034FF4805263
:104BF800C4F2020252685A604FF48053C4F20203AE
:104C08004FF48052C4F20202526842F480625A6041
:104C18004FF48053C4F202034FF48052C4F20202EC
:104C2800526822F47C125A604FF48053C4F2020393
:104C38004FF48052C4F20202526842F4E8125A60F9
:104C48004FF48053C4F202034FF48052C4F20202BC
:104C5800126842F080721A6000BF4FF48053C4F2A9
:104C680002031B6803F00073002BF6D04FF4805347
:104C7800C4F202034FF48052C4F20202526822F0D6
:104C880003025A604FF48053C4F202034FF4805277
:104C9800C4F20202526842F002025A6000BF4FF4A6
:104CA8008053C4F202035B6803F00C03082BF6D1AF
:104CB80007F10C07BD4680BC704700BF40F248535F
:104CC800C2F20003186870470FB410B540F2485399
:104CD80082B004ACC2F2000354F8042B18682346CF
:104CE8008168019400F072F802B0BDE8104004B089
:104CF800704700BF70B5054688B008460C4600F0FE
:104D080035F8144B02461868561C83680592124AF7
:104D180099890692012201F40050079204AA01928F
:104D280000B2022204940396029230B9586E41F4FC
:104D3800005120F4005299815A662846A96801AAB0
:104D480003F09EFB00280CBF0A204FF0FF3008B08C
:104D580070BD00BF48050020E0B8000840F2485385
:104D6800C2F2000301461868FFF7C4BF20F0030130
:104D780010F00300C0F1000051F8043B00F1040CEE
:104D88004FEACC0C6FF000021CBF22FA0CF213435E
:104D98004FF0010C4CEA0C2C4CEA0C4CA3EB0C0227
:104DA80022EA030212EACC1204BF51F8043B043091
:104DB800F4D013F0FF0F1FBF013013F47F4F013001
:104DC80013F47F0F18BF0130704700BF2DE9F04F73
:104DD800C5B01D460B9114460C9003F043FD0068C6
:104DE80011951490FFF7C2FF002116900020CDE91D
:104DF80018010C9919B18B6B002B00F00B810B9AE1
:104E0800938903F4005001B239B90B9843F4005365
:104E1800426E838122F40051416603F0080002B219
:104E2800002A00F0C0800B990869002800F0BB80B8
:104E380003F01A020A2A00F0C280002134ABDFF81E
:104E48006C95129108932793299128910A941A91A5
:104E58001B910F919A460A9A1078002800F0DE807C
:104E6800252800F0DB80531C02E0252900F08D8006
:104E780019781C4601330029F7D10A9AA51A85B179
:104E88002999289B4A190A98591C07298AE8210058
:104E9800299228910AF1080A00F3B2800F98421962
:104EA8000F922378002B00F09780611C0A9100264E
:104EB8004FF0FF3C94F801800A9B0E968DF87B60BA
:104EC800099620212B2266460133A8F12000582894
:104ED80000F2DF82DFE810F0ED02DD02DD02F7020A
:104EE800DD02DD02DD02DD02DD02DD022903A400B0
:104EF800DD026000A900DD02C40035033503350377
:104F0800350335033503350335033503DD02DD028B
:104F1800DD02DD02DD02DD02DD02DD02DD02DD0291
:104F28008901CB00DD02CB00DD02DD02DD02DD02FE
:104F38008201DD02DD02CE01DD02DD02DD02DD02DD
:104F4800DD02E701DD02DD02FC01DD02DD02DD023A
:104F5800DD02DD02DD02DD02DD02DD02DD02C80266
:104F6800AA02CB00CB00CB00C102AA02DD02DD02FF
:104F78005502DD026C027A0292021F02DD0226024D
:104F8800DD02FE02DD02DD0213030A98251A76E728
:104F98000E9C119064420E94099840F00404099400
:104FA80093F8008090E70C980B9901F073FD00BB13
:104FB8000B9B9B8903F01A020A2A7FF43EAF0B99D8
:104FC800B1F90E000028FFF638AF0C9822462B46A0
:104FD80001F020FD0F900FE0299A22B10C980B994F
:104FE80027AA05F09DF90B9CA38903F0400108B29C
:104FF80010B14FF0FF340F940F9845B0BDE8F08F13
:105008000C980B9927AA05F08BF90028EBD10DF124
:10501800D00A43E7084603F0F3F8F0E60A9C40E7B5
:105028008DF87B2093F800804EE71C4614F8018B1E
:10503800B8F12A0F01F0B384A8F13000002609283E
:1050480001F2498414F8018B06EB860600EB46064C
:10505800A8F1300009282346F4D946EAE67634E771
:10506800099C44F08000099093F800802CE7119D7A
:105078000A93EB1D23F007014C68B3460E6808310C
:10508800119130462146CDE9180121463046CDF828
:105098001CB005F0B5F80128DDF81CC030462146E3
:1050A80041F0C4800022002306F026F8002841F0D1
:1050B80046839DF87B30099903200026B74DB84AEE
:1050C8000D90139621F0800403200026B8F1470FB5
:1050D800CCBF9346AB4609941090159613B10D9E1C
:1050E800701C0D90099C14F0020502D00D98811CCB
:1050F8000D91099A12F0840640F0D8820E9F0D9BFC
:10510800FF1A002F40F3D282102F41F38C82299886
:105118001024289902194BF6E400C0F600008AE82A
:1051280011004B1C9F48A7F1110E072B17902992CD
:105138002893CEF3001C0AF1080A00F3C885103F33
:10514800102F40F32182BCF1000F12D001334BF62F
:10515800E4011032C0F60001072B8AE812002992F8
:1051680028930AF1080A00F3C485103F102F40F372
:105178000B821C951D960C9D0B9E12E001334BF67D
:10518800E4011032C0F60001072B8AE812000AF188
:10519800080A2992289300F3E581103F102F40F365
:1051A800F18101334BF6E4001032C0F60000072B02
:1051B8008AE81100A7F110070AF1080A2992289332
:1051C800DCDD2846314627AA05F0AAF800287FF436
:1051D8000AAF299A289B0DF1D00ACFE7099C44F021
:1051E8000800099093F800806EE60A93099BB4467C
:1051F80043F010050995099A960640F11D81119909
:10520800CC1D24F00700D0E9002308301190144683
:105218001D46002A73F10000C0F2FC870123BCF18F
:10522800000F03DB099A22F08001099154EA050076
:1052380040F03A83BCF1000F40F03683002B40F079
:105248003085099DE90740F12C850DF5887B3024D0
:105258000BF8414D089DCBEB0506109610990025DB
:105268006145B8BF61460D919DF87B30CDF84CC0C3
:10527800159533E7099C0A9344F010050995099B95
:10528800B44613F0200300F0A880119BDE1D26F021
:10529800070101F1080011900023D1E9004500221F
:1052A8008DF87B20BBE7099C0A9344F0100509950B
:1052B800099BB4469D0640F1138111980123C21D34
:1052C80022F0070606F108011191D6E90045E6E744
:1052D800099DB446344EA9060A931A9640F11781DF
:1052E800119AD11D21F0070303F108001190D3E9A9
:1052F8000045099AD60740F1DA8454EA050100F01E
:10530800D684302642F002018DF87C608DF87D80CD
:1053180009910223C3E7099840F02004099493F8FF
:105328000080D1E5119DB64600268DF87B60D5F842
:1053380000B00A930435BBF1000F01F0F281BEF111
:10534800000F5846C1F24F8131467246CDF81CE035
:1053580003F09AFDDDF81CC0002801F09C82CBEB1D
:10536800000060451090139641F3CB801195139D72
:105378002CEAEC760D969DF87B30CDF840C015955B
:10538800ACE693F800801846B8F16C0F01F0E9809C
:10539800099C44F01000099096E500BFF4B8000895
:1053A800F8B80008E4B8000804B9000838B90008DB
:1053B800099C0A93A10640F1E18711980F9A0368A6
:1053C800D117041D1A605960119444E50A93099B8A
:1053D800B44613F020037FF458AF099810F0100278
:1053E80040F0A285099E16F0400300F09D851199B2
:1053F8001346081D0C880025119050E7119A0A934E
:1054080013680999B446119E1C46A64B351D4FF0EA
:10541800780841F00200302211951A93002509906E
:105428008DF87C208DF87D80022338E7099AB446F0
:1054380096060A933FF5E3AE0999CD0600F1EF848D
:10544800099C640640F1EB841198B0F90040061DF0
:10545800E517119622462B46DBE6099840F04004F2
:10546800099493F800802FE5119E119935680A93E5
:1054780001220B1D002001240D9211938DF8A850D4
:105488008DF87B0010940DF1A80B00261396159645
:1054980028E60A93B8F1000F3FF49EAD01250023DA
:1054A8000D958DF8A8808DF87B3010950DF1A80B1F
:1054B800EBE79DF87B00002840F076878DF87B109D
:1054C80093F8008000E5099840F00104099493F8E6
:1054D8000080F9E40A93099BB4469D063FF5EDAEBA
:1054E8000998C40600F11785099A500640F11385FA
:1054F800119E0123311D348800251191CFE6099DA5
:10550800684CA9060A93B4461A943FF5E9AE099A7D
:10551800D20600F1118509994B0640F10D85119BC2
:105528000025181D1C881190E3E6119C1198246829
:105538000430002C0E94FFF62BAD93F800801190E8
:10554800C2E41C460020A8F1300314F8018B00EBDC
:105558008000A8F13005092D03EB40002346F2D95D
:105568000E90B2E42846314627AA04F0D9FE002856
:105578007FF439AD103F102F299A289B0DF1D00ADE
:105588003FF70FAE1C9D1D9ED419591C179A072969
:105598008AE88400299428910AF1080A40F3878050
:1055A8000C980B9927AA04F0BBFE00287FF41BADCA
:1055B8009DF87B00299C0DF1D00A00287BD17DB194
:1055C800289A0234531C02201FA9072BCAF800107E
:1055D800CAF80400299428930AF1080A00F32D83D5
:1055E800802E00F02282139D10982D1A002D40F372
:1055F800A980102D40F3DC86289E1027701CA5F189
:105608001103E4190728CAF80090CAF80470264E56
:1056180029942890C3F300130AF1080A00F3F182D1
:10562800103D102D77DD7BB1013010340728CAF802
:105638000090CAF80470299428900AF1080A00F327
:10564800EF82103D102D66DD53462146DA4634467A
:10565800C3460C9EDDF82C800CE0501CC3F800906B
:105668005F601031083307282890299140DC103DED
:10567800102D4BDD421CC3F800905F6010310833D9
:10568800072A29912892A5F11005E6DD3046414602
:1056980027AA04F045FE00287FF4A5AC2999289A8A
:1056A80034ABDAE718B9000838B90008299C9DF826
:1056B8007B00002883D0289A0134531C01200DF167
:1056C8007B01072BCAF80010CAF804002994289314
:1056D8000AF1080A7FF773AF0C980B9927AA04F010
:1056E8001FFE00287FF47FAC299C0DF1D00A66E7E5
:1056F8003046414627AA04F013FE00287FF473AC15
:10570800103D102D2999289834ABB3DCD84626468D
:10571800D3460C469A46421C6419072ACAF8006008
:10572800CAF80450299428920AF1080A0ADD0C984C
:105738000B9927AA04F0F4FD00287FF454AC299CA7
:105748000DF1D00A0999CA0500F1D5802898109959
:10575800109B6418421CCAF800B0CAF80430072A23
:10576800299428920AF1080A00F33582099A530706
:105778007CD50E9D0D996D1A002D77DD102D60DDFD
:10578800289E1027731C4BF6E400A5F1110EE419AE
:10579800C0F60000072B8AE88100BF4E29942893A1
:1057A800CEF300180AF1080A00F3D883103D102D33
:1057B80049DDB8F1000F11D001334BF6E400103485
:1057C800C0F60000072B8AE88100299428930AF183
:1057D800080A00F3F083103D102D34DDDDF8308029
:1057E800DDF82CB010E0431C4BF6E4021034C0F690
:1057F8000002072B8AE884000AF1080A28932994F2
:1058080045DC103D102D1EDD581C4BF6E40110340C
:10581800C0F6000107288AE88200A5F110050AF100
:10582800080A29942890DEDD4046594627AA04F044
:1058380077FD00287FF4D7AB299C28980DF1D00A72
:10584800D1E7289B944E5A1C2C19072ACAF80060E5
:10585800CAF804502994289208DD0C980B9927AAB5
:1058680004F05EFD00287FF4BEAB299C0F9B0D99C8
:105878000E988142ACBF5B181B180F93002C40F0A8
:10588800B681002428940DF1D00AFFF7E4BA404607
:10589800594627AA04F044FD00287FF4A4AB299CAC
:1058A800289B0DF1D00AACE7012B00F0EA81022B0E
:1058B80000F0CF810DF1CF060723E70804EA0300C3
:1058C80047EA4577EA0830303C461546C0B254EA04
:1058D8000501B346307006F1FF36EED1099D5946F1
:1058E800EC077FF5B7AC302800F0D5813024B346FB
:1058F80001F8014CAEE4B8F1650F40F32581DDE90C
:1059080018010022002305F0EDFB002800F0FF81BC
:105918002898624A431C01340121072BCAF8002049
:10592800CAF80410299428930AF1080A00F3448558
:105938002098129B984203DB099AD3077FF516AF8C
:1059480028981699431C6418149A1699072BCAF8B4
:105958000020CAF80410299428930AF1080A00F3D1
:105968000986129D013D002D7FF700AF102D40F3F1
:10597800EB822898129F10260130123FA41907289D
:10598800CAF80090CAF80460DFF8148129942890B6
:10599800C7F300170AF1080A00F35886103D102DC6
:1059A80040F3D58287B1013010340728CAF8009037
:1059B800CAF80460299428900AF1080A00F3878637
:1059C800103D102D40F3C3820C9FDDF82CB0234608
:1059D80010E0601C10330728CAF80090CAF8046069
:1059E8000AF1080A2890299300F36481103D102DCC
:1059F80040F31786441C1033072CCAF80090CAF8E5
:105A08000460A5F110050AF1080A29932894E0DD3D
:105A18003846594627AA04F083FC00287FF4E3AAF5
:105A2800299B289C0DF1D00AD3E70E9D0D9AAD1A3B
:105A3800002D7FF7D8AD102D40F30B87289B10263B
:105A480001331748A5F11107A419072BCAF80090CC
:105A5800CAF80460179029942893C7F300170AF12D
:105A6800080A00F37D83103D102D55DD7FB1013309
:105A78001034072BCAF80090CAF8046029942893B8
:105A88000AF1080A00F37983103D102D44DD2246FF
:105A98000C9F0B9C15E000BFE4B8000834B900085F
:105AA80038B900084B1C1032072BCAF80090CAF806
:105AB80004600AF1080A289329921DDC103D102D74
:105AC80029DD591C10320729CAF80090CAF8046069
